{
  "contractName": "MyToken",
  "abi": [
    {
      "inputs": [
        {
          "internalType": "string",
          "name": "name",
          "type": "string"
        },
        {
          "internalType": "string",
          "name": "symbol",
          "type": "string"
        },
        {
          "internalType": "uint256",
          "name": "initialSupply",
          "type": "uint256"
        }
      ],
      "stateMutability": "nonpayable",
      "type": "constructor"
    },
    {
      "anonymous": false,
      "inputs": [
        {
          "indexed": true,
          "internalType": "address",
          "name": "owner",
          "type": "address"
        },
        {
          "indexed": true,
          "internalType": "address",
          "name": "spender",
          "type": "address"
        },
        {
          "indexed": false,
          "internalType": "uint256",
          "name": "value",
          "type": "uint256"
        }
      ],
      "name": "Approval",
      "type": "event"
    },
    {
      "anonymous": false,
      "inputs": [
        {
          "indexed": true,
          "internalType": "address",
          "name": "from",
          "type": "address"
        },
        {
          "indexed": true,
          "internalType": "address",
          "name": "to",
          "type": "address"
        },
        {
          "indexed": false,
          "internalType": "uint256",
          "name": "value",
          "type": "uint256"
        }
      ],
      "name": "Transfer",
      "type": "event"
    },
    {
      "inputs": [
        {
          "internalType": "address",
          "name": "owner",
          "type": "address"
        },
        {
          "internalType": "address",
          "name": "spender",
          "type": "address"
        }
      ],
      "name": "allowance",
      "outputs": [
        {
          "internalType": "uint256",
          "name": "",
          "type": "uint256"
        }
      ],
      "stateMutability": "view",
      "type": "function",
      "constant": true
    },
    {
      "inputs": [
        {
          "internalType": "address",
          "name": "spender",
          "type": "address"
        },
        {
          "internalType": "uint256",
          "name": "amount",
          "type": "uint256"
        }
      ],
      "name": "approve",
      "outputs": [
        {
          "internalType": "bool",
          "name": "",
          "type": "bool"
        }
      ],
      "stateMutability": "nonpayable",
      "type": "function"
    },
    {
      "inputs": [
        {
          "internalType": "address",
          "name": "account",
          "type": "address"
        }
      ],
      "name": "balanceOf",
      "outputs": [
        {
          "internalType": "uint256",
          "name": "",
          "type": "uint256"
        }
      ],
      "stateMutability": "view",
      "type": "function",
      "constant": true
    },
    {
      "inputs": [],
      "name": "decimals",
      "outputs": [
        {
          "internalType": "uint8",
          "name": "",
          "type": "uint8"
        }
      ],
      "stateMutability": "view",
      "type": "function",
      "constant": true
    },
    {
      "inputs": [
        {
          "internalType": "address",
          "name": "spender",
          "type": "address"
        },
        {
          "internalType": "uint256",
          "name": "subtractedValue",
          "type": "uint256"
        }
      ],
      "name": "decreaseAllowance",
      "outputs": [
        {
          "internalType": "bool",
          "name": "",
          "type": "bool"
        }
      ],
      "stateMutability": "nonpayable",
      "type": "function"
    },
    {
      "inputs": [
        {
          "internalType": "address",
          "name": "spender",
          "type": "address"
        },
        {
          "internalType": "uint256",
          "name": "addedValue",
          "type": "uint256"
        }
      ],
      "name": "increaseAllowance",
      "outputs": [
        {
          "internalType": "bool",
          "name": "",
          "type": "bool"
        }
      ],
      "stateMutability": "nonpayable",
      "type": "function"
    },
    {
      "inputs": [],
      "name": "name",
      "outputs": [
        {
          "internalType": "string",
          "name": "",
          "type": "string"
        }
      ],
      "stateMutability": "view",
      "type": "function",
      "constant": true
    },
    {
      "inputs": [],
      "name": "symbol",
      "outputs": [
        {
          "internalType": "string",
          "name": "",
          "type": "string"
        }
      ],
      "stateMutability": "view",
      "type": "function",
      "constant": true
    },
    {
      "inputs": [],
      "name": "totalSupply",
      "outputs": [
        {
          "internalType": "uint256",
          "name": "",
          "type": "uint256"
        }
      ],
      "stateMutability": "view",
      "type": "function",
      "constant": true
    },
    {
      "inputs": [
        {
          "internalType": "address",
          "name": "to",
          "type": "address"
        },
        {
          "internalType": "uint256",
          "name": "amount",
          "type": "uint256"
        }
      ],
      "name": "transfer",
      "outputs": [
        {
          "internalType": "bool",
          "name": "",
          "type": "bool"
        }
      ],
      "stateMutability": "nonpayable",
      "type": "function"
    },
    {
      "inputs": [
        {
          "internalType": "address",
          "name": "from",
          "type": "address"
        },
        {
          "internalType": "address",
          "name": "to",
          "type": "address"
        },
        {
          "internalType": "uint256",
          "name": "amount",
          "type": "uint256"
        }
      ],
      "name": "transferFrom",
      "outputs": [
        {
          "internalType": "bool",
          "name": "",
          "type": "bool"
        }
      ],
      "stateMutability": "nonpayable",
      "type": "function"
    }
  ],
  "bytecode": "0x60806040523480156200001157600080fd5b5060405162001c1938038062001c1983398181016040528101906200003791906200041a565b828281600390816200004a9190620006f5565b5080600490816200005c9190620006f5565b50505060008111620000a5576040517f08c379a00000000000000000000000000000000000000000000000000000000081526004016200009c9062000863565b60405180910390fd5b620000cc33670de0b6b3a764000083620000c09190620008b4565b620000d560201b60201c565b505050620009da565b600073ffffffffffffffffffffffffffffffffffffffff168273ffffffffffffffffffffffffffffffffffffffff160362000147576040517f08c379a00000000000000000000000000000000000000000000000000000000081526004016200013e906200094f565b60405180910390fd5b6200015b600083836200024260201b60201c565b80600260008282546200016f919062000971565b92505081905550806000808473ffffffffffffffffffffffffffffffffffffffff1673ffffffffffffffffffffffffffffffffffffffff168152602001908152602001600020600082825401925050819055508173ffffffffffffffffffffffffffffffffffffffff16600073ffffffffffffffffffffffffffffffffffffffff167fddf252ad1be2c89b69c2b068fc378daa952ba7f163c4a11628f55a4df523b3ef83604051620002229190620009bd565b60405180910390a36200023e600083836200024760201b60201c565b5050565b505050565b505050565b6000604051905090565b600080fd5b600080fd5b600080fd5b600080fd5b6000601f19601f8301169050919050565b7f4e487b7100000000000000000000000000000000000000000000000000000000600052604160045260246000fd5b620002b5826200026a565b810181811067ffffffffffffffff82111715620002d757620002d66200027b565b5b80604052505050565b6000620002ec6200024c565b9050620002fa8282620002aa565b919050565b600067ffffffffffffffff8211156200031d576200031c6200027b565b5b62000328826200026a565b9050602081019050919050565b60005b838110156200035557808201518184015260208101905062000338565b60008484015250505050565b6000620003786200037284620002ff565b620002e0565b90508281526020810184848401111562000397576200039662000265565b5b620003a484828562000335565b509392505050565b600082601f830112620003c457620003c362000260565b5b8151620003d684826020860162000361565b91505092915050565b6000819050919050565b620003f481620003df565b81146200040057600080fd5b50565b6000815190506200041481620003e9565b92915050565b60008060006060848603121562000436576200043562000256565b5b600084015167ffffffffffffffff8111156200045757620004566200025b565b5b6200046586828701620003ac565b935050602084015167ffffffffffffffff8111156200048957620004886200025b565b5b6200049786828701620003ac565b9250506040620004aa8682870162000403565b9150509250925092565b600081519050919050565b7f4e487b7100000000000000000000000000000000000000000000000000000000600052602260045260246000fd5b600060028204905060018216806200050757607f821691505b6020821081036200051d576200051c620004bf565b5b50919050565b60008190508160005260206000209050919050565b60006020601f8301049050919050565b600082821b905092915050565b600060088302620005877fffffffffffffffffffffffffffffffffffffffffffffffffffffffffffffffff8262000548565b62000593868362000548565b95508019841693508086168417925050509392505050565b6000819050919050565b6000620005d6620005d0620005ca84620003df565b620005ab565b620003df565b9050919050565b6000819050919050565b620005f283620005b5565b6200060a6200060182620005dd565b84845462000555565b825550505050565b600090565b6200062162000612565b6200062e818484620005e7565b505050565b5b8181101562000656576200064a60008262000617565b60018101905062000634565b5050565b601f821115620006a5576200066f8162000523565b6200067a8462000538565b810160208510156200068a578190505b620006a2620006998562000538565b83018262000633565b50505b505050565b600082821c905092915050565b6000620006ca60001984600802620006aa565b1980831691505092915050565b6000620006e58383620006b7565b9150826002028217905092915050565b6200070082620004b4565b67ffffffffffffffff8111156200071c576200071b6200027b565b5b620007288254620004ee565b620007358282856200065a565b600060209050601f8311600181146200076d576000841562000758578287015190505b620007648582620006d7565b865550620007d4565b601f1984166200077d8662000523565b60005b82811015620007a75784890151825560018201915060208501945060208101905062000780565b86831015620007c75784890151620007c3601f891682620006b7565b8355505b6001600288020188555050505b505050505050565b600082825260208201905092915050565b7f496e697469616c20737570706c792068617320746f206265206772656174657260008201527f207468616e203000000000000000000000000000000000000000000000000000602082015250565b60006200084b602783620007dc565b91506200085882620007ed565b604082019050919050565b600060208201905081810360008301526200087e816200083c565b9050919050565b7f4e487b7100000000000000000000000000000000000000000000000000000000600052601160045260246000fd5b6000620008c182620003df565b9150620008ce83620003df565b9250828202620008de81620003df565b91508282048414831517620008f857620008f762000885565b5b5092915050565b7f45524332303a206d696e7420746f20746865207a65726f206164647265737300600082015250565b600062000937601f83620007dc565b91506200094482620008ff565b602082019050919050565b600060208201905081810360008301526200096a8162000928565b9050919050565b60006200097e82620003df565b91506200098b83620003df565b9250828201905080821115620009a657620009a562000885565b5b92915050565b620009b781620003df565b82525050565b6000602082019050620009d46000830184620009ac565b92915050565b61122f80620009ea6000396000f3fe608060405234801561001057600080fd5b50600436106100a95760003560e01c80633950935111610071578063395093511461016857806370a082311461019857806395d89b41146101c8578063a457c2d7146101e6578063a9059cbb14610216578063dd62ed3e14610246576100a9565b806306fdde03146100ae578063095ea7b3146100cc57806318160ddd146100fc57806323b872dd1461011a578063313ce5671461014a575b600080fd5b6100b6610276565b6040516100c39190610b0c565b60405180910390f35b6100e660048036038101906100e19190610bc7565b610308565b6040516100f39190610c22565b60405180910390f35b61010461032b565b6040516101119190610c4c565b60405180910390f35b610134600480360381019061012f9190610c67565b610335565b6040516101419190610c22565b60405180910390f35b610152610364565b60405161015f9190610cd6565b60405180910390f35b610182600480360381019061017d9190610bc7565b61036d565b60405161018f9190610c22565b60405180910390f35b6101b260048036038101906101ad9190610cf1565b6103a4565b6040516101bf9190610c4c565b60405180910390f35b6101d06103ec565b6040516101dd9190610b0c565b60405180910390f35b61020060048036038101906101fb9190610bc7565b61047e565b60405161020d9190610c22565b60405180910390f35b610230600480360381019061022b9190610bc7565b6104f5565b60405161023d9190610c22565b60405180910390f35b610260600480360381019061025b9190610d1e565b610518565b60405161026d9190610c4c565b60405180910390f35b60606003805461028590610d8d565b80601f01602080910402602001604051908101604052809291908181526020018280546102b190610d8d565b80156102fe5780601f106102d3576101008083540402835291602001916102fe565b820191906000526020600020905b8154815290600101906020018083116102e157829003601f168201915b5050505050905090565b60008061031361059f565b90506103208185856105a7565b600191505092915050565b6000600254905090565b60008061034061059f565b905061034d858285610770565b6103588585856107fc565b60019150509392505050565b60006012905090565b60008061037861059f565b905061039981858561038a8589610518565b6103949190610ded565b6105a7565b600191505092915050565b60008060008373ffffffffffffffffffffffffffffffffffffffff1673ffffffffffffffffffffffffffffffffffffffff168152602001908152602001600020549050919050565b6060600480546103fb90610d8d565b80601f016020809104026020016040519081016040528092919081815260200182805461042790610d8d565b80156104745780601f1061044957610100808354040283529160200191610474565b820191906000526020600020905b81548152906001019060200180831161045757829003601f168201915b5050505050905090565b60008061048961059f565b905060006104978286610518565b9050838110156104dc576040517f08c379a00000000000000000000000000000000000000000000000000000000081526004016104d390610e93565b60405180910390fd5b6104e982868684036105a7565b60019250505092915050565b60008061050061059f565b905061050d8185856107fc565b600191505092915050565b6000600160008473ffffffffffffffffffffffffffffffffffffffff1673ffffffffffffffffffffffffffffffffffffffff16815260200190815260200160002060008373ffffffffffffffffffffffffffffffffffffffff1673ffffffffffffffffffffffffffffffffffffffff16815260200190815260200160002054905092915050565b600033905090565b600073ffffffffffffffffffffffffffffffffffffffff168373ffffffffffffffffffffffffffffffffffffffff1603610616576040517f08c379a000000000000000000000000000000000000000000000000000000000815260040161060d90610f25565b60405180910390fd5b600073ffffffffffffffffffffffffffffffffffffffff168273ffffffffffffffffffffffffffffffffffffffff1603610685576040517f08c379a000000000000000000000000000000000000000000000000000000000815260040161067c90610fb7565b60405180910390fd5b80600160008573ffffffffffffffffffffffffffffffffffffffff1673ffffffffffffffffffffffffffffffffffffffff16815260200190815260200160002060008473ffffffffffffffffffffffffffffffffffffffff1673ffffffffffffffffffffffffffffffffffffffff168152602001908152602001600020819055508173ffffffffffffffffffffffffffffffffffffffff168373ffffffffffffffffffffffffffffffffffffffff167f8c5be1e5ebec7d5bd14f71427d1e84f3dd0314c0f7b2291e5b200ac8c7c3b925836040516107639190610c4c565b60405180910390a3505050565b600061077c8484610518565b90507fffffffffffffffffffffffffffffffffffffffffffffffffffffffffffffffff81146107f657818110156107e8576040517f08c379a00000000000000000000000000000000000000000000000000000000081526004016107df90611023565b60405180910390fd5b6107f584848484036105a7565b5b50505050565b600073ffffffffffffffffffffffffffffffffffffffff168373ffffffffffffffffffffffffffffffffffffffff160361086b576040517f08c379a0000000000000000000000000000000000000000000000000000000008152600401610862906110b5565b60405180910390fd5b600073ffffffffffffffffffffffffffffffffffffffff168273ffffffffffffffffffffffffffffffffffffffff16036108da576040517f08c379a00000000000000000000000000000000000000000000000000000000081526004016108d190611147565b60405180910390fd5b6108e5838383610a72565b60008060008573ffffffffffffffffffffffffffffffffffffffff1673ffffffffffffffffffffffffffffffffffffffff1681526020019081526020016000205490508181101561096b576040517f08c379a0000000000000000000000000000000000000000000000000000000008152600401610962906111d9565b60405180910390fd5b8181036000808673ffffffffffffffffffffffffffffffffffffffff1673ffffffffffffffffffffffffffffffffffffffff16815260200190815260200160002081905550816000808573ffffffffffffffffffffffffffffffffffffffff1673ffffffffffffffffffffffffffffffffffffffff168152602001908152602001600020600082825401925050819055508273ffffffffffffffffffffffffffffffffffffffff168473ffffffffffffffffffffffffffffffffffffffff167fddf252ad1be2c89b69c2b068fc378daa952ba7f163c4a11628f55a4df523b3ef84604051610a599190610c4c565b60405180910390a3610a6c848484610a77565b50505050565b505050565b505050565b600081519050919050565b600082825260208201905092915050565b60005b83811015610ab6578082015181840152602081019050610a9b565b60008484015250505050565b6000601f19601f8301169050919050565b6000610ade82610a7c565b610ae88185610a87565b9350610af8818560208601610a98565b610b0181610ac2565b840191505092915050565b60006020820190508181036000830152610b268184610ad3565b905092915050565b600080fd5b600073ffffffffffffffffffffffffffffffffffffffff82169050919050565b6000610b5e82610b33565b9050919050565b610b6e81610b53565b8114610b7957600080fd5b50565b600081359050610b8b81610b65565b92915050565b6000819050919050565b610ba481610b91565b8114610baf57600080fd5b50565b600081359050610bc181610b9b565b92915050565b60008060408385031215610bde57610bdd610b2e565b5b6000610bec85828601610b7c565b9250506020610bfd85828601610bb2565b9150509250929050565b60008115159050919050565b610c1c81610c07565b82525050565b6000602082019050610c376000830184610c13565b92915050565b610c4681610b91565b82525050565b6000602082019050610c616000830184610c3d565b92915050565b600080600060608486031215610c8057610c7f610b2e565b5b6000610c8e86828701610b7c565b9350506020610c9f86828701610b7c565b9250506040610cb086828701610bb2565b9150509250925092565b600060ff82169050919050565b610cd081610cba565b82525050565b6000602082019050610ceb6000830184610cc7565b92915050565b600060208284031215610d0757610d06610b2e565b5b6000610d1584828501610b7c565b91505092915050565b60008060408385031215610d3557610d34610b2e565b5b6000610d4385828601610b7c565b9250506020610d5485828601610b7c565b9150509250929050565b7f4e487b7100000000000000000000000000000000000000000000000000000000600052602260045260246000fd5b60006002820490506001821680610da557607f821691505b602082108103610db857610db7610d5e565b5b50919050565b7f4e487b7100000000000000000000000000000000000000000000000000000000600052601160045260246000fd5b6000610df882610b91565b9150610e0383610b91565b9250828201905080821115610e1b57610e1a610dbe565b5b92915050565b7f45524332303a2064656372656173656420616c6c6f77616e63652062656c6f7760008201527f207a65726f000000000000000000000000000000000000000000000000000000602082015250565b6000610e7d602583610a87565b9150610e8882610e21565b604082019050919050565b60006020820190508181036000830152610eac81610e70565b9050919050565b7f45524332303a20617070726f76652066726f6d20746865207a65726f2061646460008201527f7265737300000000000000000000000000000000000000000000000000000000602082015250565b6000610f0f602483610a87565b9150610f1a82610eb3565b604082019050919050565b60006020820190508181036000830152610f3e81610f02565b9050919050565b7f45524332303a20617070726f766520746f20746865207a65726f20616464726560008201527f7373000000000000000000000000000000000000000000000000000000000000602082015250565b6000610fa1602283610a87565b9150610fac82610f45565b604082019050919050565b60006020820190508181036000830152610fd081610f94565b9050919050565b7f45524332303a20696e73756666696369656e7420616c6c6f77616e6365000000600082015250565b600061100d601d83610a87565b915061101882610fd7565b602082019050919050565b6000602082019050818103600083015261103c81611000565b9050919050565b7f45524332303a207472616e736665722066726f6d20746865207a65726f20616460008201527f6472657373000000000000000000000000000000000000000000000000000000602082015250565b600061109f602583610a87565b91506110aa82611043565b604082019050919050565b600060208201905081810360008301526110ce81611092565b9050919050565b7f45524332303a207472616e7366657220746f20746865207a65726f206164647260008201527f6573730000000000000000000000000000000000000000000000000000000000602082015250565b6000611131602383610a87565b915061113c826110d5565b604082019050919050565b6000602082019050818103600083015261116081611124565b9050919050565b7f45524332303a207472616e7366657220616d6f756e742065786365656473206260008201527f616c616e63650000000000000000000000000000000000000000000000000000602082015250565b60006111c3602683610a87565b91506111ce82611167565b604082019050919050565b600060208201905081810360008301526111f2816111b6565b905091905056fea2646970667358221220f4ca4a9d7a0fa8a0c7c76f7c0e911120f2c95fa947f6adcc522b0030faf0c8d564736f6c63430008110033",
  "immutableReferences": {},
  "source": "// SPDX-License-Identifier: MIT\r\npragma solidity ^0.8.17;\r\n\r\nimport \"@openzeppelin/contracts/token/ERC20/ERC20.sol\";\r\n\r\ncontract MyToken is ERC20 {\r\n    constructor(\r\n        string memory name,\r\n        string memory symbol,\r\n        uint initialSupply\r\n    ) ERC20(name, symbol) {\r\n        require(initialSupply > 0, \"Initial supply has to be greater than 0\");\r\n        _mint(msg.sender, initialSupply * 10**18);\r\n    }\r\n}\r\n",
  "sourcePath": "D:\\Blockchain\\Tokens\\ERC20\\contracts\\MyToken.sol",
  "compiler": {
    "name": "solc",
    "version": "0.8.17+commit.8df45f5f.Emscripten.clang"
  },
  "schemaVersion": "3.4.13",
  "updatedAt": "2023-04-23T01:07:28.993Z",
  "networkType": "ethereum",
  "devdoc": {
    "kind": "dev",
    "methods": {
      "allowance(address,address)": {
        "details": "See {IERC20-allowance}."
      },
      "approve(address,uint256)": {
        "details": "See {IERC20-approve}. NOTE: If `amount` is the maximum `uint256`, the allowance is not updated on `transferFrom`. This is semantically equivalent to an infinite approval. Requirements: - `spender` cannot be the zero address."
      },
      "balanceOf(address)": {
        "details": "See {IERC20-balanceOf}."
      },
      "decimals()": {
        "details": "Returns the number of decimals used to get its user representation. For example, if `decimals` equals `2`, a balance of `505` tokens should be displayed to a user as `5.05` (`505 / 10 ** 2`). Tokens usually opt for a value of 18, imitating the relationship between Ether and Wei. This is the value {ERC20} uses, unless this function is overridden; NOTE: This information is only used for _display_ purposes: it in no way affects any of the arithmetic of the contract, including {IERC20-balanceOf} and {IERC20-transfer}."
      },
      "decreaseAllowance(address,uint256)": {
        "details": "Atomically decreases the allowance granted to `spender` by the caller. This is an alternative to {approve} that can be used as a mitigation for problems described in {IERC20-approve}. Emits an {Approval} event indicating the updated allowance. Requirements: - `spender` cannot be the zero address. - `spender` must have allowance for the caller of at least `subtractedValue`."
      },
      "increaseAllowance(address,uint256)": {
        "details": "Atomically increases the allowance granted to `spender` by the caller. This is an alternative to {approve} that can be used as a mitigation for problems described in {IERC20-approve}. Emits an {Approval} event indicating the updated allowance. Requirements: - `spender` cannot be the zero address."
      },
      "name()": {
        "details": "Returns the name of the token."
      },
      "symbol()": {
        "details": "Returns the symbol of the token, usually a shorter version of the name."
      },
      "totalSupply()": {
        "details": "See {IERC20-totalSupply}."
      },
      "transfer(address,uint256)": {
        "details": "See {IERC20-transfer}. Requirements: - `to` cannot be the zero address. - the caller must have a balance of at least `amount`."
      },
      "transferFrom(address,address,uint256)": {
        "details": "See {IERC20-transferFrom}. Emits an {Approval} event indicating the updated allowance. This is not required by the EIP. See the note at the beginning of {ERC20}. NOTE: Does not update the allowance if the current allowance is the maximum `uint256`. Requirements: - `from` and `to` cannot be the zero address. - `from` must have a balance of at least `amount`. - the caller must have allowance for ``from``'s tokens of at least `amount`."
      }
    },
    "version": 1
  },
  "userdoc": {
    "kind": "user",
    "methods": {},
    "version": 1
  }
}